{
	"data": {
		"bytecode": {
			"linkReferences": {},
			"object": "60806040526040516106ee3803806106ee8339818101604052810190610025919061010e565b335f806101000a81548173ffffffffffffffffffffffffffffffffffffffff021916908373ffffffffffffffffffffffffffffffffffffffff1602179055508260018190555060015460025f805f9054906101000a900473ffffffffffffffffffffffffffffffffffffffff1673ffffffffffffffffffffffffffffffffffffffff1673ffffffffffffffffffffffffffffffffffffffff1681526020019081526020015f208190555050505061015e565b5f80fd5b5f819050919050565b6100ed816100db565b81146100f7575f80fd5b50565b5f81519050610108816100e4565b92915050565b5f805f60608486031215610125576101246100d7565b5b5f610132868287016100fa565b9350506020610143868287016100fa565b9250506040610154868287016100fa565b9150509250925092565b6105838061016b5f395ff3fe608060405234801561000f575f80fd5b506004361061004a575f3560e01c8063047fc9aa1461004e57806327e235e31461006c5780638d69e95e1461009c578063fad76b75146100ba575b5f80fd5b6100566100ea565b604051610063919061029c565b60405180910390f35b6100866004803603810190610081919061031c565b6100f0565b604051610093919061029c565b60405180910390f35b6100a4610105565b6040516100b19190610356565b60405180910390f35b6100d460048036038101906100cf9190610399565b610128565b6040516100e191906103f1565b60405180910390f35b60015481565b6002602052805f5260405f205f915090505481565b5f8054906101000a900473ffffffffffffffffffffffffffffffffffffffff1681565b5f805f8054906101000a900473ffffffffffffffffffffffffffffffffffffffff1690505f8173ffffffffffffffffffffffffffffffffffffffff16638315b3536040518163ffffffff1660e01b8152600401602060405180830381865afa158015610196573d5f803e3d5ffd5b505050506040513d601f19601f820116820180604052508101906101ba919061041e565b90505f5b81811015610276575f8373ffffffffffffffffffffffffffffffffffffffff1663d7105f3a836040518263ffffffff1660e01b8152600401610200919061029c565b6040805180830381865afa15801561021a573d5f803e3d5ffd5b505050506040513d601f19601f8201168201806040525081019061023e9190610522565b9050805f01518710158015610257575080602001518611155b15610268575f94505050505061027e565b5080806001019150506101be565b506001925050505b92915050565b5f819050919050565b61029681610284565b82525050565b5f6020820190506102af5f83018461028d565b92915050565b5f604051905090565b5f80fd5b5f73ffffffffffffffffffffffffffffffffffffffff82169050919050565b5f6102eb826102c2565b9050919050565b6102fb816102e1565b8114610305575f80fd5b50565b5f81359050610316816102f2565b92915050565b5f60208284031215610331576103306102be565b5b5f61033e84828501610308565b91505092915050565b610350816102e1565b82525050565b5f6020820190506103695f830184610347565b92915050565b61037881610284565b8114610382575f80fd5b50565b5f813590506103938161036f565b92915050565b5f80604083850312156103af576103ae6102be565b5b5f6103bc85828601610385565b92505060206103cd85828601610385565b9150509250929050565b5f8115159050919050565b6103eb816103d7565b82525050565b5f6020820190506104045f8301846103e2565b92915050565b5f815190506104188161036f565b92915050565b5f60208284031215610433576104326102be565b5b5f6104408482850161040a565b91505092915050565b5f80fd5b5f601f19601f8301169050919050565b7f4e487b71000000000000000000000000000000000000000000000000000000005f52604160045260245ffd5b6104938261044d565b810181811067ffffffffffffffff821117156104b2576104b161045d565b5b80604052505050565b5f6104c46102b5565b90506104d0828261048a565b919050565b5f604082840312156104ea576104e9610449565b5b6104f460406104bb565b90505f6105038482850161040a565b5f8301525060206105168482850161040a565b60208301525092915050565b5f60408284031215610537576105366102be565b5b5f610544848285016104d5565b9150509291505056fea26469706673582212203215844037f5fe2a13af30f0c15f71064f189c10c17fb6f98dc1f54ba92da24164736f6c634300081a0033",
			"opcodes": "PUSH1 0x80 PUSH1 0x40 MSTORE PUSH1 0x40 MLOAD PUSH2 0x6EE CODESIZE SUB DUP1 PUSH2 0x6EE DUP4 CODECOPY DUP2 DUP2 ADD PUSH1 0x40 MSTORE DUP2 ADD SWAP1 PUSH2 0x25 SWAP2 SWAP1 PUSH2 0x10E JUMP JUMPDEST CALLER PUSH0 DUP1 PUSH2 0x100 EXP DUP2 SLOAD DUP2 PUSH20 0xFFFFFFFFFFFFFFFFFFFFFFFFFFFFFFFFFFFFFFFF MUL NOT AND SWAP1 DUP4 PUSH20 0xFFFFFFFFFFFFFFFFFFFFFFFFFFFFFFFFFFFFFFFF AND MUL OR SWAP1 SSTORE POP DUP3 PUSH1 0x1 DUP2 SWAP1 SSTORE POP PUSH1 0x1 SLOAD PUSH1 0x2 PUSH0 DUP1 PUSH0 SWAP1 SLOAD SWAP1 PUSH2 0x100 EXP SWAP1 DIV PUSH20 0xFFFFFFFFFFFFFFFFFFFFFFFFFFFFFFFFFFFFFFFF AND PUSH20 0xFFFFFFFFFFFFFFFFFFFFFFFFFFFFFFFFFFFFFFFF AND PUSH20 0xFFFFFFFFFFFFFFFFFFFFFFFFFFFFFFFFFFFFFFFF AND DUP2 MSTORE PUSH1 0x20 ADD SWAP1 DUP2 MSTORE PUSH1 0x20 ADD PUSH0 KECCAK256 DUP2 SWAP1 SSTORE POP POP POP POP PUSH2 0x15E JUMP JUMPDEST PUSH0 DUP1 REVERT JUMPDEST PUSH0 DUP2 SWAP1 POP SWAP2 SWAP1 POP JUMP JUMPDEST PUSH2 0xED DUP2 PUSH2 0xDB JUMP JUMPDEST DUP2 EQ PUSH2 0xF7 JUMPI PUSH0 DUP1 REVERT JUMPDEST POP JUMP JUMPDEST PUSH0 DUP2 MLOAD SWAP1 POP PUSH2 0x108 DUP2 PUSH2 0xE4 JUMP JUMPDEST SWAP3 SWAP2 POP POP JUMP JUMPDEST PUSH0 DUP1 PUSH0 PUSH1 0x60 DUP5 DUP7 SUB SLT ISZERO PUSH2 0x125 JUMPI PUSH2 0x124 PUSH2 0xD7 JUMP JUMPDEST JUMPDEST PUSH0 PUSH2 0x132 DUP7 DUP3 DUP8 ADD PUSH2 0xFA JUMP JUMPDEST SWAP4 POP POP PUSH1 0x20 PUSH2 0x143 DUP7 DUP3 DUP8 ADD PUSH2 0xFA JUMP JUMPDEST SWAP3 POP POP PUSH1 0x40 PUSH2 0x154 DUP7 DUP3 DUP8 ADD PUSH2 0xFA JUMP JUMPDEST SWAP2 POP POP SWAP3 POP SWAP3 POP SWAP3 JUMP JUMPDEST PUSH2 0x583 DUP1 PUSH2 0x16B PUSH0 CODECOPY PUSH0 RETURN INVALID PUSH1 0x80 PUSH1 0x40 MSTORE CALLVALUE DUP1 ISZERO PUSH2 0xF JUMPI PUSH0 DUP1 REVERT JUMPDEST POP PUSH1 0x4 CALLDATASIZE LT PUSH2 0x4A JUMPI PUSH0 CALLDATALOAD PUSH1 0xE0 SHR DUP1 PUSH4 0x47FC9AA EQ PUSH2 0x4E JUMPI DUP1 PUSH4 0x27E235E3 EQ PUSH2 0x6C JUMPI DUP1 PUSH4 0x8D69E95E EQ PUSH2 0x9C JUMPI DUP1 PUSH4 0xFAD76B75 EQ PUSH2 0xBA JUMPI JUMPDEST PUSH0 DUP1 REVERT JUMPDEST PUSH2 0x56 PUSH2 0xEA JUMP JUMPDEST PUSH1 0x40 MLOAD PUSH2 0x63 SWAP2 SWAP1 PUSH2 0x29C JUMP JUMPDEST PUSH1 0x40 MLOAD DUP1 SWAP2 SUB SWAP1 RETURN JUMPDEST PUSH2 0x86 PUSH1 0x4 DUP1 CALLDATASIZE SUB DUP2 ADD SWAP1 PUSH2 0x81 SWAP2 SWAP1 PUSH2 0x31C JUMP JUMPDEST PUSH2 0xF0 JUMP JUMPDEST PUSH1 0x40 MLOAD PUSH2 0x93 SWAP2 SWAP1 PUSH2 0x29C JUMP JUMPDEST PUSH1 0x40 MLOAD DUP1 SWAP2 SUB SWAP1 RETURN JUMPDEST PUSH2 0xA4 PUSH2 0x105 JUMP JUMPDEST PUSH1 0x40 MLOAD PUSH2 0xB1 SWAP2 SWAP1 PUSH2 0x356 JUMP JUMPDEST PUSH1 0x40 MLOAD DUP1 SWAP2 SUB SWAP1 RETURN JUMPDEST PUSH2 0xD4 PUSH1 0x4 DUP1 CALLDATASIZE SUB DUP2 ADD SWAP1 PUSH2 0xCF SWAP2 SWAP1 PUSH2 0x399 JUMP JUMPDEST PUSH2 0x128 JUMP JUMPDEST PUSH1 0x40 MLOAD PUSH2 0xE1 SWAP2 SWAP1 PUSH2 0x3F1 JUMP JUMPDEST PUSH1 0x40 MLOAD DUP1 SWAP2 SUB SWAP1 RETURN JUMPDEST PUSH1 0x1 SLOAD DUP2 JUMP JUMPDEST PUSH1 0x2 PUSH1 0x20 MSTORE DUP1 PUSH0 MSTORE PUSH1 0x40 PUSH0 KECCAK256 PUSH0 SWAP2 POP SWAP1 POP SLOAD DUP2 JUMP JUMPDEST PUSH0 DUP1 SLOAD SWAP1 PUSH2 0x100 EXP SWAP1 DIV PUSH20 0xFFFFFFFFFFFFFFFFFFFFFFFFFFFFFFFFFFFFFFFF AND DUP2 JUMP JUMPDEST PUSH0 DUP1 PUSH0 DUP1 SLOAD SWAP1 PUSH2 0x100 EXP SWAP1 DIV PUSH20 0xFFFFFFFFFFFFFFFFFFFFFFFFFFFFFFFFFFFFFFFF AND SWAP1 POP PUSH0 DUP2 PUSH20 0xFFFFFFFFFFFFFFFFFFFFFFFFFFFFFFFFFFFFFFFF AND PUSH4 0x8315B353 PUSH1 0x40 MLOAD DUP2 PUSH4 0xFFFFFFFF AND PUSH1 0xE0 SHL DUP2 MSTORE PUSH1 0x4 ADD PUSH1 0x20 PUSH1 0x40 MLOAD DUP1 DUP4 SUB DUP2 DUP7 GAS STATICCALL ISZERO DUP1 ISZERO PUSH2 0x196 JUMPI RETURNDATASIZE PUSH0 DUP1 RETURNDATACOPY RETURNDATASIZE PUSH0 REVERT JUMPDEST POP POP POP POP PUSH1 0x40 MLOAD RETURNDATASIZE PUSH1 0x1F NOT PUSH1 0x1F DUP3 ADD AND DUP3 ADD DUP1 PUSH1 0x40 MSTORE POP DUP2 ADD SWAP1 PUSH2 0x1BA SWAP2 SWAP1 PUSH2 0x41E JUMP JUMPDEST SWAP1 POP PUSH0 JUMPDEST DUP2 DUP2 LT ISZERO PUSH2 0x276 JUMPI PUSH0 DUP4 PUSH20 0xFFFFFFFFFFFFFFFFFFFFFFFFFFFFFFFFFFFFFFFF AND PUSH4 0xD7105F3A DUP4 PUSH1 0x40 MLOAD DUP3 PUSH4 0xFFFFFFFF AND PUSH1 0xE0 SHL DUP2 MSTORE PUSH1 0x4 ADD PUSH2 0x200 SWAP2 SWAP1 PUSH2 0x29C JUMP JUMPDEST PUSH1 0x40 DUP1 MLOAD DUP1 DUP4 SUB DUP2 DUP7 GAS STATICCALL ISZERO DUP1 ISZERO PUSH2 0x21A JUMPI RETURNDATASIZE PUSH0 DUP1 RETURNDATACOPY RETURNDATASIZE PUSH0 REVERT JUMPDEST POP POP POP POP PUSH1 0x40 MLOAD RETURNDATASIZE PUSH1 0x1F NOT PUSH1 0x1F DUP3 ADD AND DUP3 ADD DUP1 PUSH1 0x40 MSTORE POP DUP2 ADD SWAP1 PUSH2 0x23E SWAP2 SWAP1 PUSH2 0x522 JUMP JUMPDEST SWAP1 POP DUP1 PUSH0 ADD MLOAD DUP8 LT ISZERO DUP1 ISZERO PUSH2 0x257 JUMPI POP DUP1 PUSH1 0x20 ADD MLOAD DUP7 GT ISZERO JUMPDEST ISZERO PUSH2 0x268 JUMPI PUSH0 SWAP5 POP POP POP POP POP PUSH2 0x27E JUMP JUMPDEST POP DUP1 DUP1 PUSH1 0x1 ADD SWAP2 POP POP PUSH2 0x1BE JUMP JUMPDEST POP PUSH1 0x1 SWAP3 POP POP POP JUMPDEST SWAP3 SWAP2 POP POP JUMP JUMPDEST PUSH0 DUP2 SWAP1 POP SWAP2 SWAP1 POP JUMP JUMPDEST PUSH2 0x296 DUP2 PUSH2 0x284 JUMP JUMPDEST DUP3 MSTORE POP POP JUMP JUMPDEST PUSH0 PUSH1 0x20 DUP3 ADD SWAP1 POP PUSH2 0x2AF PUSH0 DUP4 ADD DUP5 PUSH2 0x28D JUMP JUMPDEST SWAP3 SWAP2 POP POP JUMP JUMPDEST PUSH0 PUSH1 0x40 MLOAD SWAP1 POP SWAP1 JUMP JUMPDEST PUSH0 DUP1 REVERT JUMPDEST PUSH0 PUSH20 0xFFFFFFFFFFFFFFFFFFFFFFFFFFFFFFFFFFFFFFFF DUP3 AND SWAP1 POP SWAP2 SWAP1 POP JUMP JUMPDEST PUSH0 PUSH2 0x2EB DUP3 PUSH2 0x2C2 JUMP JUMPDEST SWAP1 POP SWAP2 SWAP1 POP JUMP JUMPDEST PUSH2 0x2FB DUP2 PUSH2 0x2E1 JUMP JUMPDEST DUP2 EQ PUSH2 0x305 JUMPI PUSH0 DUP1 REVERT JUMPDEST POP JUMP JUMPDEST PUSH0 DUP2 CALLDATALOAD SWAP1 POP PUSH2 0x316 DUP2 PUSH2 0x2F2 JUMP JUMPDEST SWAP3 SWAP2 POP POP JUMP JUMPDEST PUSH0 PUSH1 0x20 DUP3 DUP5 SUB SLT ISZERO PUSH2 0x331 JUMPI PUSH2 0x330 PUSH2 0x2BE JUMP JUMPDEST JUMPDEST PUSH0 PUSH2 0x33E DUP5 DUP3 DUP6 ADD PUSH2 0x308 JUMP JUMPDEST SWAP2 POP POP SWAP3 SWAP2 POP POP JUMP JUMPDEST PUSH2 0x350 DUP2 PUSH2 0x2E1 JUMP JUMPDEST DUP3 MSTORE POP POP JUMP JUMPDEST PUSH0 PUSH1 0x20 DUP3 ADD SWAP1 POP PUSH2 0x369 PUSH0 DUP4 ADD DUP5 PUSH2 0x347 JUMP JUMPDEST SWAP3 SWAP2 POP POP JUMP JUMPDEST PUSH2 0x378 DUP2 PUSH2 0x284 JUMP JUMPDEST DUP2 EQ PUSH2 0x382 JUMPI PUSH0 DUP1 REVERT JUMPDEST POP JUMP JUMPDEST PUSH0 DUP2 CALLDATALOAD SWAP1 POP PUSH2 0x393 DUP2 PUSH2 0x36F JUMP JUMPDEST SWAP3 SWAP2 POP POP JUMP JUMPDEST PUSH0 DUP1 PUSH1 0x40 DUP4 DUP6 SUB SLT ISZERO PUSH2 0x3AF JUMPI PUSH2 0x3AE PUSH2 0x2BE JUMP JUMPDEST JUMPDEST PUSH0 PUSH2 0x3BC DUP6 DUP3 DUP7 ADD PUSH2 0x385 JUMP JUMPDEST SWAP3 POP POP PUSH1 0x20 PUSH2 0x3CD DUP6 DUP3 DUP7 ADD PUSH2 0x385 JUMP JUMPDEST SWAP2 POP POP SWAP3 POP SWAP3 SWAP1 POP JUMP JUMPDEST PUSH0 DUP2 ISZERO ISZERO SWAP1 POP SWAP2 SWAP1 POP JUMP JUMPDEST PUSH2 0x3EB DUP2 PUSH2 0x3D7 JUMP JUMPDEST DUP3 MSTORE POP POP JUMP JUMPDEST PUSH0 PUSH1 0x20 DUP3 ADD SWAP1 POP PUSH2 0x404 PUSH0 DUP4 ADD DUP5 PUSH2 0x3E2 JUMP JUMPDEST SWAP3 SWAP2 POP POP JUMP JUMPDEST PUSH0 DUP2 MLOAD SWAP1 POP PUSH2 0x418 DUP2 PUSH2 0x36F JUMP JUMPDEST SWAP3 SWAP2 POP POP JUMP JUMPDEST PUSH0 PUSH1 0x20 DUP3 DUP5 SUB SLT ISZERO PUSH2 0x433 JUMPI PUSH2 0x432 PUSH2 0x2BE JUMP JUMPDEST JUMPDEST PUSH0 PUSH2 0x440 DUP5 DUP3 DUP6 ADD PUSH2 0x40A JUMP JUMPDEST SWAP2 POP POP SWAP3 SWAP2 POP POP JUMP JUMPDEST PUSH0 DUP1 REVERT JUMPDEST PUSH0 PUSH1 0x1F NOT PUSH1 0x1F DUP4 ADD AND SWAP1 POP SWAP2 SWAP1 POP JUMP JUMPDEST PUSH32 0x4E487B7100000000000000000000000000000000000000000000000000000000 PUSH0 MSTORE PUSH1 0x41 PUSH1 0x4 MSTORE PUSH1 0x24 PUSH0 REVERT JUMPDEST PUSH2 0x493 DUP3 PUSH2 0x44D JUMP JUMPDEST DUP2 ADD DUP2 DUP2 LT PUSH8 0xFFFFFFFFFFFFFFFF DUP3 GT OR ISZERO PUSH2 0x4B2 JUMPI PUSH2 0x4B1 PUSH2 0x45D JUMP JUMPDEST JUMPDEST DUP1 PUSH1 0x40 MSTORE POP POP POP JUMP JUMPDEST PUSH0 PUSH2 0x4C4 PUSH2 0x2B5 JUMP JUMPDEST SWAP1 POP PUSH2 0x4D0 DUP3 DUP3 PUSH2 0x48A JUMP JUMPDEST SWAP2 SWAP1 POP JUMP JUMPDEST PUSH0 PUSH1 0x40 DUP3 DUP5 SUB SLT ISZERO PUSH2 0x4EA JUMPI PUSH2 0x4E9 PUSH2 0x449 JUMP JUMPDEST JUMPDEST PUSH2 0x4F4 PUSH1 0x40 PUSH2 0x4BB JUMP JUMPDEST SWAP1 POP PUSH0 PUSH2 0x503 DUP5 DUP3 DUP6 ADD PUSH2 0x40A JUMP JUMPDEST PUSH0 DUP4 ADD MSTORE POP PUSH1 0x20 PUSH2 0x516 DUP5 DUP3 DUP6 ADD PUSH2 0x40A JUMP JUMPDEST PUSH1 0x20 DUP4 ADD MSTORE POP SWAP3 SWAP2 POP POP JUMP JUMPDEST PUSH0 PUSH1 0x40 DUP3 DUP5 SUB SLT ISZERO PUSH2 0x537 JUMPI PUSH2 0x536 PUSH2 0x2BE JUMP JUMPDEST JUMPDEST PUSH0 PUSH2 0x544 DUP5 DUP3 DUP6 ADD PUSH2 0x4D5 JUMP JUMPDEST SWAP2 POP POP SWAP3 SWAP2 POP POP JUMP INVALID LOG2 PUSH5 0x6970667358 0x22 SLT KECCAK256 ORIGIN ISZERO DUP5 BLOCKHASH CALLDATACOPY CREATE2 INVALID 0x2A SGT 0xAF ADDRESS CREATE 0xC1 PUSH0 PUSH18 0x64F189C10C17FB6F98DC1F54BA92DA24164 PUSH20 0x6F6C634300081A00330000000000000000000000 "
		},
		"gasEstimates": {
			"creation": {
				"codeDepositCost": "282200",
				"executionCost": "infinite",
				"totalCost": "infinite"
			},
			"external": {
				"balances(address)": "2802",
				"canCreateSlot(uint256,uint256)": "infinite",
				"serviceProvider()": "2527",
				"supply()": "2403"
			}
		},
		"methodIdentifiers": {
			"balances(address)": "27e235e3",
			"canCreateSlot(uint256,uint256)": "fad76b75",
			"serviceProvider()": "8d69e95e",
			"supply()": "047fc9aa"
		}
	},
	"abi": [
		{
			"inputs": [
				{
					"internalType": "uint256",
					"name": "_supply",
					"type": "uint256"
				},
				{
					"internalType": "uint256",
					"name": "_startPeriod",
					"type": "uint256"
				},
				{
					"internalType": "uint256",
					"name": "_endPeriod",
					"type": "uint256"
				}
			],
			"stateMutability": "payable",
			"type": "constructor"
		},
		{
			"inputs": [
				{
					"internalType": "address",
					"name": "",
					"type": "address"
				}
			],
			"name": "balances",
			"outputs": [
				{
					"internalType": "uint256",
					"name": "",
					"type": "uint256"
				}
			],
			"stateMutability": "view",
			"type": "function"
		},
		{
			"inputs": [
				{
					"internalType": "uint256",
					"name": "_startTime",
					"type": "uint256"
				},
				{
					"internalType": "uint256",
					"name": "_endTime",
					"type": "uint256"
				}
			],
			"name": "canCreateSlot",
			"outputs": [
				{
					"internalType": "bool",
					"name": "",
					"type": "bool"
				}
			],
			"stateMutability": "view",
			"type": "function"
		},
		{
			"inputs": [],
			"name": "serviceProvider",
			"outputs": [
				{
					"internalType": "address",
					"name": "",
					"type": "address"
				}
			],
			"stateMutability": "view",
			"type": "function"
		},
		{
			"inputs": [],
			"name": "supply",
			"outputs": [
				{
					"internalType": "uint256",
					"name": "",
					"type": "uint256"
				}
			],
			"stateMutability": "view",
			"type": "function"
		}
	]
}