{
	"data": {
		"bytecode": {
			"linkReferences": {},
			"object": "60806040527f30644e72e131a029b85045b68181585d2833e84879b9709143e1f593f00000015f556040518061014001604052805f81526020017f24fcaa9f697357930aff43261096b9202c9ed3ee5a3d913c38fd49c7789ae06481526020017f87407aed05d349312c239600ed45eeded238b8cf5789e747ae0daa296682044a81526020017fbbdd69282ee6678adec5609913d4e44df5c375be79026485fa437502768f1c2e81526020017f3983410a067c5f28c7ca95a1f3738cb43a578e384b0980b6b5ee234400f3eb4881526020017f9fda247693229399e39777d3fb1cded272471302d54664f45814e9e5f58010b781526020017ff972654fda925612eb356a87f2961b41a1092ada18b583567e827e1b3f25d45481526020017fa708b4ca3ac204e1387bdcc4614acf3cb8c27987283350cc5fc913f0d57ec5dc81526020017fdc0c01fe6f8910afc24cc6b7315062842c6b813063cbf9630c9d2aa756ba70b381526020017f6a34d95ccbeb9966dfccbe5e7c36fd9134d16197a94b112af38e4ae98892582d815250600190600a61019d9291906101af565b503480156101a9575f80fd5b5061020a565b82600a81019282156101de579160200282015b828111156101dd5782518255916020019190600101906101c2565b5b5090506101eb91906101ef565b5090565b5b80821115610206575f815f9055506001016101f0565b5090565b610258806102175f395ff3fe608060405234801561000f575f80fd5b5060043610610029575f3560e01c8063324a7d341461002d575b5f80fd5b61004760048036038101906100429190610159565b61005d565b60405161005491906101af565b60405180910390f35b5f805f805f8693505f5b600a8110156100fb575f54806100805761007f6101c8565b5b600182600a8110610094576100936101f5565b5b0154860893505f54806100aa576100a96101c8565b5b87850893505f54806100bf576100be6101c8565b5b84850992505f54806100d4576100d36101c8565b5b83840991505f54806100e9576100e86101c8565b5b82850994508080600101915050610067565b505f80548061010d5761010c6101c8565b5b8786089050805f1b9550505050505092915050565b5f80fd5b5f819050919050565b61013881610126565b8114610142575f80fd5b50565b5f813590506101538161012f565b92915050565b5f806040838503121561016f5761016e610122565b5b5f61017c85828601610145565b925050602061018d85828601610145565b9150509250929050565b5f819050919050565b6101a981610197565b82525050565b5f6020820190506101c25f8301846101a0565b92915050565b7f4e487b71000000000000000000000000000000000000000000000000000000005f52601260045260245ffd5b7f4e487b71000000000000000000000000000000000000000000000000000000005f52603260045260245ffdfea2646970667358221220e27772a18097fa62d41e6db310e1a3767a855b7b408d9b1eb0101f601dc08e3164736f6c634300081a0033",
			"opcodes": "PUSH1 0x80 PUSH1 0x40 MSTORE PUSH32 0x30644E72E131A029B85045B68181585D2833E84879B9709143E1F593F0000001 PUSH0 SSTORE PUSH1 0x40 MLOAD DUP1 PUSH2 0x140 ADD PUSH1 0x40 MSTORE DUP1 PUSH0 DUP2 MSTORE PUSH1 0x20 ADD PUSH32 0x24FCAA9F697357930AFF43261096B9202C9ED3EE5A3D913C38FD49C7789AE064 DUP2 MSTORE PUSH1 0x20 ADD PUSH32 0x87407AED05D349312C239600ED45EEDED238B8CF5789E747AE0DAA296682044A DUP2 MSTORE PUSH1 0x20 ADD PUSH32 0xBBDD69282EE6678ADEC5609913D4E44DF5C375BE79026485FA437502768F1C2E DUP2 MSTORE PUSH1 0x20 ADD PUSH32 0x3983410A067C5F28C7CA95A1F3738CB43A578E384B0980B6B5EE234400F3EB48 DUP2 MSTORE PUSH1 0x20 ADD PUSH32 0x9FDA247693229399E39777D3FB1CDED272471302D54664F45814E9E5F58010B7 DUP2 MSTORE PUSH1 0x20 ADD PUSH32 0xF972654FDA925612EB356A87F2961B41A1092ADA18B583567E827E1B3F25D454 DUP2 MSTORE PUSH1 0x20 ADD PUSH32 0xA708B4CA3AC204E1387BDCC4614ACF3CB8C27987283350CC5FC913F0D57EC5DC DUP2 MSTORE PUSH1 0x20 ADD PUSH32 0xDC0C01FE6F8910AFC24CC6B7315062842C6B813063CBF9630C9D2AA756BA70B3 DUP2 MSTORE PUSH1 0x20 ADD PUSH32 0x6A34D95CCBEB9966DFCCBE5E7C36FD9134D16197A94B112AF38E4AE98892582D DUP2 MSTORE POP PUSH1 0x1 SWAP1 PUSH1 0xA PUSH2 0x19D SWAP3 SWAP2 SWAP1 PUSH2 0x1AF JUMP JUMPDEST POP CALLVALUE DUP1 ISZERO PUSH2 0x1A9 JUMPI PUSH0 DUP1 REVERT JUMPDEST POP PUSH2 0x20A JUMP JUMPDEST DUP3 PUSH1 0xA DUP2 ADD SWAP3 DUP3 ISZERO PUSH2 0x1DE JUMPI SWAP2 PUSH1 0x20 MUL DUP3 ADD JUMPDEST DUP3 DUP2 GT ISZERO PUSH2 0x1DD JUMPI DUP3 MLOAD DUP3 SSTORE SWAP2 PUSH1 0x20 ADD SWAP2 SWAP1 PUSH1 0x1 ADD SWAP1 PUSH2 0x1C2 JUMP JUMPDEST JUMPDEST POP SWAP1 POP PUSH2 0x1EB SWAP2 SWAP1 PUSH2 0x1EF JUMP JUMPDEST POP SWAP1 JUMP JUMPDEST JUMPDEST DUP1 DUP3 GT ISZERO PUSH2 0x206 JUMPI PUSH0 DUP2 PUSH0 SWAP1 SSTORE POP PUSH1 0x1 ADD PUSH2 0x1F0 JUMP JUMPDEST POP SWAP1 JUMP JUMPDEST PUSH2 0x258 DUP1 PUSH2 0x217 PUSH0 CODECOPY PUSH0 RETURN INVALID PUSH1 0x80 PUSH1 0x40 MSTORE CALLVALUE DUP1 ISZERO PUSH2 0xF JUMPI PUSH0 DUP1 REVERT JUMPDEST POP PUSH1 0x4 CALLDATASIZE LT PUSH2 0x29 JUMPI PUSH0 CALLDATALOAD PUSH1 0xE0 SHR DUP1 PUSH4 0x324A7D34 EQ PUSH2 0x2D JUMPI JUMPDEST PUSH0 DUP1 REVERT JUMPDEST PUSH2 0x47 PUSH1 0x4 DUP1 CALLDATASIZE SUB DUP2 ADD SWAP1 PUSH2 0x42 SWAP2 SWAP1 PUSH2 0x159 JUMP JUMPDEST PUSH2 0x5D JUMP JUMPDEST PUSH1 0x40 MLOAD PUSH2 0x54 SWAP2 SWAP1 PUSH2 0x1AF JUMP JUMPDEST PUSH1 0x40 MLOAD DUP1 SWAP2 SUB SWAP1 RETURN JUMPDEST PUSH0 DUP1 PUSH0 DUP1 PUSH0 DUP7 SWAP4 POP PUSH0 JUMPDEST PUSH1 0xA DUP2 LT ISZERO PUSH2 0xFB JUMPI PUSH0 SLOAD DUP1 PUSH2 0x80 JUMPI PUSH2 0x7F PUSH2 0x1C8 JUMP JUMPDEST JUMPDEST PUSH1 0x1 DUP3 PUSH1 0xA DUP2 LT PUSH2 0x94 JUMPI PUSH2 0x93 PUSH2 0x1F5 JUMP JUMPDEST JUMPDEST ADD SLOAD DUP7 ADDMOD SWAP4 POP PUSH0 SLOAD DUP1 PUSH2 0xAA JUMPI PUSH2 0xA9 PUSH2 0x1C8 JUMP JUMPDEST JUMPDEST DUP8 DUP6 ADDMOD SWAP4 POP PUSH0 SLOAD DUP1 PUSH2 0xBF JUMPI PUSH2 0xBE PUSH2 0x1C8 JUMP JUMPDEST JUMPDEST DUP5 DUP6 MULMOD SWAP3 POP PUSH0 SLOAD DUP1 PUSH2 0xD4 JUMPI PUSH2 0xD3 PUSH2 0x1C8 JUMP JUMPDEST JUMPDEST DUP4 DUP5 MULMOD SWAP2 POP PUSH0 SLOAD DUP1 PUSH2 0xE9 JUMPI PUSH2 0xE8 PUSH2 0x1C8 JUMP JUMPDEST JUMPDEST DUP3 DUP6 MULMOD SWAP5 POP DUP1 DUP1 PUSH1 0x1 ADD SWAP2 POP POP PUSH2 0x67 JUMP JUMPDEST POP PUSH0 DUP1 SLOAD DUP1 PUSH2 0x10D JUMPI PUSH2 0x10C PUSH2 0x1C8 JUMP JUMPDEST JUMPDEST DUP8 DUP7 ADDMOD SWAP1 POP DUP1 PUSH0 SHL SWAP6 POP POP POP POP POP POP SWAP3 SWAP2 POP POP JUMP JUMPDEST PUSH0 DUP1 REVERT JUMPDEST PUSH0 DUP2 SWAP1 POP SWAP2 SWAP1 POP JUMP JUMPDEST PUSH2 0x138 DUP2 PUSH2 0x126 JUMP JUMPDEST DUP2 EQ PUSH2 0x142 JUMPI PUSH0 DUP1 REVERT JUMPDEST POP JUMP JUMPDEST PUSH0 DUP2 CALLDATALOAD SWAP1 POP PUSH2 0x153 DUP2 PUSH2 0x12F JUMP JUMPDEST SWAP3 SWAP2 POP POP JUMP JUMPDEST PUSH0 DUP1 PUSH1 0x40 DUP4 DUP6 SUB SLT ISZERO PUSH2 0x16F JUMPI PUSH2 0x16E PUSH2 0x122 JUMP JUMPDEST JUMPDEST PUSH0 PUSH2 0x17C DUP6 DUP3 DUP7 ADD PUSH2 0x145 JUMP JUMPDEST SWAP3 POP POP PUSH1 0x20 PUSH2 0x18D DUP6 DUP3 DUP7 ADD PUSH2 0x145 JUMP JUMPDEST SWAP2 POP POP SWAP3 POP SWAP3 SWAP1 POP JUMP JUMPDEST PUSH0 DUP2 SWAP1 POP SWAP2 SWAP1 POP JUMP JUMPDEST PUSH2 0x1A9 DUP2 PUSH2 0x197 JUMP JUMPDEST DUP3 MSTORE POP POP JUMP JUMPDEST PUSH0 PUSH1 0x20 DUP3 ADD SWAP1 POP PUSH2 0x1C2 PUSH0 DUP4 ADD DUP5 PUSH2 0x1A0 JUMP JUMPDEST SWAP3 SWAP2 POP POP JUMP JUMPDEST PUSH32 0x4E487B7100000000000000000000000000000000000000000000000000000000 PUSH0 MSTORE PUSH1 0x12 PUSH1 0x4 MSTORE PUSH1 0x24 PUSH0 REVERT JUMPDEST PUSH32 0x4E487B7100000000000000000000000000000000000000000000000000000000 PUSH0 MSTORE PUSH1 0x32 PUSH1 0x4 MSTORE PUSH1 0x24 PUSH0 REVERT INVALID LOG2 PUSH5 0x6970667358 0x22 SLT KECCAK256 0xE2 PUSH24 0x72A18097FA62D41E6DB310E1A3767A855B7B408D9B1EB010 0x1F PUSH1 0x1D 0xC0 DUP15 BALANCE PUSH5 0x736F6C6343 STOP ADDMOD BYTE STOP CALLER "
		},
		"gasEstimates": {
			"creation": {
				"codeDepositCost": "120000",
				"executionCost": "infinite",
				"totalCost": "infinite"
			},
			"external": {
				"generateHash(uint256,uint256)": "infinite"
			}
		},
		"methodIdentifiers": {
			"generateHash(uint256,uint256)": "324a7d34"
		}
	},
	"abi": [
		{
			"inputs": [
				{
					"internalType": "uint256",
					"name": "x",
					"type": "uint256"
				},
				{
					"internalType": "uint256",
					"name": "k",
					"type": "uint256"
				}
			],
			"name": "generateHash",
			"outputs": [
				{
					"internalType": "bytes32",
					"name": "",
					"type": "bytes32"
				}
			],
			"stateMutability": "view",
			"type": "function"
		}
	]
}